{
  "contractName": "Poll",
  "abi": [
    {
      "inputs": [],
      "payable": false,
      "stateMutability": "nonpayable",
      "type": "constructor"
    },
    {
      "constant": true,
      "inputs": [
        {
          "internalType": "uint256",
          "name": "",
          "type": "uint256"
        }
      ],
      "name": "contestants",
      "outputs": [
        {
          "internalType": "uint256",
          "name": "id",
          "type": "uint256"
        },
        {
          "internalType": "string",
          "name": "name",
          "type": "string"
        },
        {
          "internalType": "string",
          "name": "genre",
          "type": "string"
        },
        {
          "internalType": "uint256",
          "name": "votes",
          "type": "uint256"
        }
      ],
      "payable": false,
      "stateMutability": "view",
      "type": "function"
    },
    {
      "constant": true,
      "inputs": [],
      "name": "contestantsCount",
      "outputs": [
        {
          "internalType": "uint256",
          "name": "",
          "type": "uint256"
        }
      ],
      "payable": false,
      "stateMutability": "view",
      "type": "function"
    },
    {
      "constant": false,
      "inputs": [
        {
          "internalType": "uint256",
          "name": "_contestantId",
          "type": "uint256"
        }
      ],
      "name": "castVote",
      "outputs": [],
      "payable": false,
      "stateMutability": "nonpayable",
      "type": "function"
    }
  ],
  "bytecode": "0x608060405234801561001057600080fd5b5061008b6040518060400160405280600781526020017f465249454e4453000000000000000000000000000000000000000000000000008152506040518060400160405280600681526020017f436f6d656479000000000000000000000000000000000000000000000000000081525061010a60201b60201c565b6101056040518060400160405280600581526020017f48494d594d0000000000000000000000000000000000000000000000000000008152506040518060400160405280600681526020017f436f6d656479000000000000000000000000000000000000000000000000000081525061010a60201b60201c565b61024e565b600160008154809291906001019190505550604051806080016040528060015481526020018381526020018281526020016000815250600080600154815260200190815260200160002060008201518160000155602082015181600101908051906020019061017a9291906101a9565b5060408201518160020190805190602001906101979291906101a9565b50606082015181600301559050505050565b828054600181600116156101000203166002900490600052602060002090601f016020900481019282601f106101ea57805160ff1916838001178555610218565b82800160010185558215610218579182015b828111156102175782518255916020019190600101906101fc565b5b5090506102259190610229565b5090565b61024b91905b8082111561024757600081600090555060010161022f565b5090565b90565b6103768061025d6000396000f3fe608060405234801561001057600080fd5b50600436106100415760003560e01c80633eb76b9c14610046578063dfd50f5214610074578063ec63d1c814610195575b600080fd5b6100726004803603602081101561005c57600080fd5b81019080803590602001909291905050506101b3565b005b6100a06004803603602081101561008a57600080fd5b81019080803590602001909291905050506101db565b604051808581526020018060200180602001848152602001838103835286818151815260200191508051906020019080838360005b838110156100f05780820151818401526020810190506100d5565b50505050905090810190601f16801561011d5780820380516001836020036101000a031916815260200191505b50838103825285818151815260200191508051906020019080838360005b8381101561015657808201518184015260208101905061013b565b50505050905090810190601f1680156101835780820380516001836020036101000a031916815260200191505b50965050505050505060405180910390f35b61019d61033b565b6040518082815260200191505060405180910390f35b6000808281526020019081526020016000206003016000815480929190600101919050555050565b6000602052806000526040600020600091509050806000015490806001018054600181600116156101000203166002900480601f01602080910402602001604051908101604052809291908181526020018280546001816001161561010002031660029004801561028d5780601f106102625761010080835404028352916020019161028d565b820191906000526020600020905b81548152906001019060200180831161027057829003601f168201915b505050505090806002018054600181600116156101000203166002900480601f01602080910402602001604051908101604052809291908181526020018280546001816001161561010002031660029004801561032b5780601f106103005761010080835404028352916020019161032b565b820191906000526020600020905b81548152906001019060200180831161030e57829003601f168201915b5050505050908060030154905084565b6001548156fea265627a7a723158201c12d6cb57aa7d27ea178eb4427986f1fb6fcd2de84f3d77cf4a9199900d975764736f6c634300050c0032",
  "source": "pragma solidity >=0.4.0 <0.6.0;\n\ncontract Poll{\n    //model class for contestant//\n    struct Contestant {\n        uint id;\n        string name;\n        string genre;\n        uint votes;\n    }\n\n    //mapping to fetch contestant details//\n    mapping(uint => Contestant) public contestants;\n\n    //varialble to keep track of number of contestants - because of the way solidity work//\n    uint public contestantsCount;\n\n    //contructor for a Poll with contestants//\n    constructor () public {\n        addNewContestant('FRIENDS', 'Comedy');\n        addNewContestant('HIMYM', 'Comedy');\n    }\n\n    //function to add a contestant//\n    function addNewContestant (string memory _name, string memory _genre) private {\n        //increament the value of contestantCount//\n        contestantsCount  ++;\n        contestants[contestantsCount] = Contestant(contestantsCount, _name, _genre, 0);\n    }\n\n    //function to cast vote to a contestant and follow up with voetrs data//\n    function castVote(uint _contestantId) public {\n        //add vote count for the contestant//\n        contestants[_contestantId].votes ++;\n    }\n}",
  "sourcePath": "/Users/pradhumna/Desktop/new stuff/Polls/contracts/Poll.sol",
  "compiler": {
    "name": "solc",
    "version": "0.5.12+commit.7709ece9.Emscripten.clang"
  },
  "schemaVersion": "3.0.19",
  "updatedAt": "2019-12-14T02:31:29.453Z",
  "networkType": "ethereum",
  "devdoc": {
    "methods": {}
  },
  "userdoc": {
    "methods": {}
  }
}