{
  "contractName": "Poll",
  "abi": [
    {
      "inputs": [],
      "payable": false,
      "stateMutability": "nonpayable",
      "type": "constructor"
    },
    {
      "constant": true,
      "inputs": [
        {
          "internalType": "uint256",
          "name": "",
          "type": "uint256"
        }
      ],
      "name": "contestants",
      "outputs": [
        {
          "internalType": "uint256",
          "name": "id",
          "type": "uint256"
        },
        {
          "internalType": "string",
          "name": "name",
          "type": "string"
        },
        {
          "internalType": "string",
          "name": "genre",
          "type": "string"
        },
        {
          "internalType": "uint256",
          "name": "votes",
          "type": "uint256"
        }
      ],
      "payable": false,
      "stateMutability": "view",
      "type": "function"
    },
    {
      "constant": true,
      "inputs": [],
      "name": "contestantsCount",
      "outputs": [
        {
          "internalType": "uint256",
          "name": "",
          "type": "uint256"
        }
      ],
      "payable": false,
      "stateMutability": "view",
      "type": "function"
    }
  ],
  "bytecode": "0x608060405234801561001057600080fd5b5061008b6040518060400160405280600781526020017f465249454e4453000000000000000000000000000000000000000000000000008152506040518060400160405280600681526020017f436f6d656479000000000000000000000000000000000000000000000000000081525061010a60201b60201c565b6101056040518060400160405280600581526020017f48494d594d0000000000000000000000000000000000000000000000000000008152506040518060400160405280600681526020017f436f6d656479000000000000000000000000000000000000000000000000000081525061010a60201b60201c565b61024e565b600160008154809291906001019190505550604051806080016040528060015481526020018381526020018281526020016000815250600080600154815260200190815260200160002060008201518160000155602082015181600101908051906020019061017a9291906101a9565b5060408201518160020190805190602001906101979291906101a9565b50606082015181600301559050505050565b828054600181600116156101000203166002900490600052602060002090601f016020900481019282601f106101ea57805160ff1916838001178555610218565b82800160010185558215610218579182015b828111156102175782518255916020019190600101906101fc565b5b5090506102259190610229565b5090565b61024b91905b8082111561024757600081600090555060010161022f565b5090565b90565b6103158061025d6000396000f3fe608060405234801561001057600080fd5b50600436106100365760003560e01c8063dfd50f521461003b578063ec63d1c81461015c575b600080fd5b6100676004803603602081101561005157600080fd5b810190808035906020019092919050505061017a565b604051808581526020018060200180602001848152602001838103835286818151815260200191508051906020019080838360005b838110156100b757808201518184015260208101905061009c565b50505050905090810190601f1680156100e45780820380516001836020036101000a031916815260200191505b50838103825285818151815260200191508051906020019080838360005b8381101561011d578082015181840152602081019050610102565b50505050905090810190601f16801561014a5780820380516001836020036101000a031916815260200191505b50965050505050505060405180910390f35b6101646102da565b6040518082815260200191505060405180910390f35b6000602052806000526040600020600091509050806000015490806001018054600181600116156101000203166002900480601f01602080910402602001604051908101604052809291908181526020018280546001816001161561010002031660029004801561022c5780601f106102015761010080835404028352916020019161022c565b820191906000526020600020905b81548152906001019060200180831161020f57829003601f168201915b505050505090806002018054600181600116156101000203166002900480601f0160208091040260200160405190810160405280929190818152602001828054600181600116156101000203166002900480156102ca5780601f1061029f576101008083540402835291602001916102ca565b820191906000526020600020905b8154815290600101906020018083116102ad57829003601f168201915b5050505050908060030154905084565b6001548156fea265627a7a72315820c157240a729bc474e3801e24b0fb5a1d8f4d1977577988da3b44ced6e621dc6b64736f6c634300050c0032",
  "source": "pragma solidity >=0.4.0 <0.6.0;\n\ncontract Poll{\n    //model class for contestant//\n    struct Contestant {\n        uint id;\n        string name;\n        string genre;\n        uint votes;\n    }\n\n    //mapping to fetch contestant details//\n    mapping(uint => Contestant) public contestants;\n\n    //varialble to keep track of number of contestants - because of the way solidity work//\n    uint public contestantsCount;\n\n    //contructor for a Poll with contestants//\n    constructor () public {\n        addNewContestant('FRIENDS', 'Comedy');\n        addNewContestant('HIMYM', 'Comedy');\n    }\n\n    //function to add a contestant//\n    function addNewContestant (string memory _name, string memory _genre) private {\n        //increament the value of contestantCount//\n        contestantsCount  ++;\n        contestants[contestantsCount] = Contestant(contestantsCount, _name, _genre, 0);\n    }\n}",
  "sourcePath": "/Users/pradhumna/Desktop/new stuff/Polls/contracts/Poll.sol",
  "compiler": {
    "name": "solc",
    "version": "0.5.12+commit.7709ece9.Emscripten.clang"
  },
  "schemaVersion": "3.0.19",
  "updatedAt": "2019-11-20T00:45:26.742Z",
  "networkType": "ethereum",
  "devdoc": {
    "methods": {}
  },
  "userdoc": {
    "methods": {}
  }
}