{
  "contractName": "Poll",
  "abi": [
    {
      "constant": true,
      "inputs": [],
      "name": "contendor",
      "outputs": [
        {
          "internalType": "string",
          "name": "",
          "type": "string"
        }
      ],
      "payable": false,
      "stateMutability": "view",
      "type": "function"
    }
  ],
  "bytecode": "0x608060405234801561001057600080fd5b50610186806100206000396000f3fe608060405234801561001057600080fd5b506004361061002b5760003560e01c80639c19897f14610030575b600080fd5b6100386100b3565b6040518080602001828103825283818151815260200191508051906020019080838360005b8381101561007857808201518184015260208101905061005d565b50505050905090810190601f1680156100a55780820380516001836020036101000a031916815260200191505b509250505060405180910390f35b60008054600181600116156101000203166002900480601f0160208091040260200160405190810160405280929190818152602001828054600181600116156101000203166002900480156101495780601f1061011e57610100808354040283529160200191610149565b820191906000526020600020905b81548152906001019060200180831161012c57829003601f168201915b50505050508156fea265627a7a72315820074cee0def9c51db7453f9654d733ee6c4ed29d9a71d51b592ed7825e3fad42d64736f6c634300050c0032",
  "source": "pragma solidity ^0.5.12;\n\ncontract Poll{\n    string public contendor;\n}",
  "sourcePath": "/Users/pradhumna/Desktop/new stuff/Polls/contracts/Poll.sol",
  "compiler": {
    "name": "solc",
    "version": "0.5.12+commit.7709ece9.Emscripten.clang"
  },
  "schemaVersion": "3.0.19",
  "updatedAt": "2019-11-19T05:40:53.611Z",
  "devdoc": {
    "methods": {}
  },
  "userdoc": {
    "methods": {}
  }
}